:100000000C942A000C94910A0C94BE0A0C94EB0AEE
:100010000C9447000C9447000C9447000C94470044
:100020000C9447000C9447000C9447000C94470034
:100030000C9447000C9447000C9447000C94470024
:100040000C9447000C9447000C9447000C94470014
:100050000C94470011241FBECFE5D8E0DEBFCDBF12
:1000600010E0A0E6B0E0E8EAFDE302C005900D92E2
:10007000AE37B107D9F710E0AEE7B0E001C01D928E
:10008000A438B107E1F70E94501D0C94D21E0C94C5
:100090000000EF92FF920F931F937B018C0120E0F1
:1000A00030E040E05FE40E94490388238CF0C801FF
:1000B000B70120E030E040E05FE40E94C1010E940F
:1000C000A9039B01AC01205030404040504806C07D
:1000D000C801B7010E94A9039B01AC01B901CA0183
:1000E0001F910F91FF90EF900895A0E0B0E0EBE733
:1000F000F0E00C949B1EDC012B01FA019C919230E4
:1001000008F439C1EB018881823008F433C194309E
:1001100069F4843009F02FC111969C91119789815F
:10012000981709F428C1A6E6B0E025C1843009F487
:1001300021C18230A9F4923009F01DC19A01AD01AC
:1001400088E0EA010990AE01E90109929E0181501F
:10015000C1F7E201898111969C918923818308C1AD
:10016000923009F407C112962D903C901397EB0141
:100170008A819B811496AD90BD90CD90DC901797AD
:10018000EC80FD800E811F819101281B390BB90184
:1001900037FF04C066277727621B730B6032710537
:1001A0000CF061C0121613066CF537014801062EDB
:1001B00004C096948794779467940A94D2F721E0C8
:1001C00030E040E050E004C0220F331F441F551FB1
:1001D0006A95D2F721503040404050402E213F21B7
:1001E00040235123211531054105510521F021E01E
:1001F00030E040E050E079018A01E628F72808293C
:1002000019293CC0232BD1F1260E371E350146019A
:10021000062E04C096948794779467940A94D2F734
:1002200021E030E040E050E004C0220F331F441FC3
:10023000551F6A95D2F721503040404050402A2146
:100240003B214C215D21211531054105510521F04E
:1002500021E030E040E050E059016A01A628B728CB
:10026000C828D9280BC0821593052CF01C01AA249C
:10027000BB24650103C0EE24FF24870111969C91E5
:10028000D20111968C91981709F445C0992339F041
:10029000A80197012A193B094C095D0906C0A6016E
:1002A00095012E193F09400B510B57FD08C01182D3
:1002B0003382228224833583468357831DC081E0A5
:1002C00081833382228288279927DC01821B930B4A
:1002D000A40BB50B84839583A683B7830DC0220F2F
:1002E000331F441F551F24833583468357838281E0
:1002F000938101979383828324813581468157813D
:10030000DA01C9010197A109B1098F5F9F4FAF4F72
:10031000BF4328F30BC0918333822282EA0CFB1C7B
:100320000C1D1D1DE482F5820683178383E0808304
:10033000248135814681578157FF1AC0C901AA27F8
:1003400097FDA095BA2F81709070A070B0705695EF
:10035000479537952795822B932BA42BB52B848318
:100360009583A683B7838281938101969383828349
:10037000DF0101C0D201CD01CDB7DEB7E2E10C94BF
:10038000B71EA0E2B0E0E7ECF1E00C94A71E698391
:100390007A838B839C832D833E834F835887E9E048
:1003A000EE2EF12CEC0EFD1ECE010196B7010E943F
:1003B000D2048E010F5E1F4FCE010596B8010E9438
:1003C000D2048A8991E089278A8BC701B801AE01DE
:1003D000475E5F4F0E9475000E94FD03A096E6E015
:1003E0000C94C31EA0E2B0E0E8EFF1E00C94A71E6D
:1003F00069837A838B839C832D833E834F835887C5
:10040000F9E0EF2EF12CEC0EFD1ECE010196B701A6
:100410000E94D2048E010F5E1F4FCE010596B801D7
:100420000E94D204C701B801AE01475E5F4F0E942F
:1004300075000E94FD03A096E6E00C94C31EA0E2A6
:10044000B0E0E5E2F2E00C949B1E69837A838B8333
:100450009C832D833E834F835887CE010196BE0136
:10046000675F7F4F0E94D204CE010596BE016F5E8A
:100470007F4F0E94D2049985923088F0898982301A
:10048000C8F0943019F4823051F404C0843029F457
:10049000923081F486E690E0C6C0923049F420E0C4
:1004A0009A858A89981321E02A87CE010996BBC0D4
:1004B000823049F420E09A858A89981321E02A8BBA
:1004C000CE014196B0C02D843E844F8458886D88FB
:1004D0007E888F88988CEE24FF248701AA24BB2471
:1004E000650140E050E060E070E0E0E0F0E0C10174
:1004F00081709070892BE9F0E60CF71C081D191D1E
:100500009A01AB012A0D3B1D4C1D5D1D80E090E062
:10051000A0E0B0E0E614F7040805190520F481E036
:1005200090E0A0E0B0E0BA01A901480F591F6A1F8E
:100530007B1FAA0CBB1CCC1CDD1C97FE08C081E0F5
:1005400090E0A0E0B0E0A82AB92ACA2ADB2A3196B6
:10055000E032F10549F0660C771C881C991C569412
:10056000479437942794C3CFFA85EA892B893C892D
:100570008B859C85280F391F2E5F3F4F17C0CA01FE
:1005800081709070892B61F016950795F794E79428
:1005900080E090E0A0E0B0E8E82AF92A0A2B1B2BC3
:1005A00076956795579547952F5F3F4F77FDE7CF36
:1005B0000CC0440F551F661F771F17FD4160EE0CDE
:1005C000FF1C001F111F21503040403090E05907A0
:1005D00090E0690790E4790760F32B8F3C8FDB0193
:1005E000CA018F779070A070B07080349105A1051A
:1005F000B10561F447FD0AC0E114F10401051105DC
:1006000029F0405C5F4F6F4F7F4F40781A8EFE1786
:1006100011F081E08A8F4D8F5E8F6F8F78A383E01A
:10062000898FCE0149960E94FD03A096E2E10C94C9
:10063000B71EA8E1B0E0EFE1F3E00C94A71E6983D8
:100640007A838B839C832D833E834F83588789E0F5
:10065000E82EF12CEC0EFD1ECE010196B7010E9492
:10066000D2048E010F5E1F4FCE010596B8010E9485
:10067000D2048985823040F08989823028F0C70110
:10068000B8010E944A0501C08FEF6896E6E00C941D
:10069000C31EA8E1B0E0EFE4F3E00C94A71E698369
:1006A0007A838B839C832D833E834F83588789E095
:1006B000E82EF12CEC0EFD1ECE010196B7010E9432
:1006C000D2048E010F5E1F4FCE010596B8010E9425
:1006D000D2048985823040F08989823028F0C701B0
:1006E000B8010E944A0501C08FEF6896E6E00C94BD
:1006F000C31EA8E1B0E0EFE7F3E00C94A71E698306
:100700007A838B839C832D833E834F83588789E034
:10071000E82EF12CEC0EFD1ECE010196B7010E94D1
:10072000D2048E010F5E1F4FCE010596B8010E94C4
:10073000D2048985823040F08989823028F0C7014F
:10074000B8010E944A0501C081E06896E6E00C9479
:10075000C31EACE0B0E0EFEAF3E00C94AB1E69839B
:100760007A838B839C83CE010196BE016B5F7F4FA2
:100770000E94D2048D81823061F1823050F1843048
:1007800021F48E81882351F12EC02F81388537FDC9
:1007900020C06E812F3131051CF06623F9F023C093
:1007A0008EE190E0821B930B29853A854B855C8511
:1007B00004C056954795379527958A95D2F76623B5
:1007C000B1F050954095309521953F4F4F4F5F4F79
:1007D0000EC020E030E040E050E009C02FEF3FEFD6
:1007E0004FEF5FE704C020E030E040E050E8B9019F
:1007F000CA012C96E2E00C94C71EDF92EF92FF92A2
:100800000F931F93FC01E480F58006811781D1804E
:100810008081823048F480E090E0A0E1B0E0E82AF6
:10082000F92A0A2B1B2BA5C0843009F49FC0823003
:1008300021F4EE24FF24870105C0E114F104010531
:10084000110519F4E0E0F0E096C0628173819FEF3A
:10085000623879070CF05BC022E83FEF261B370BAC
:100860002A3131052CF020E030E040E050E02AC091
:10087000B801A701022E04C0769567955795479554
:100880000A94D2F781E090E0A0E0B0E004C0880FC5
:10089000991FAA1FBB1F2A95D2F70197A109B10979
:1008A0008E219F21A023B1230097A105B10521F03E
:1008B00081E090E0A0E0B0E09A01AB01282B392B59
:1008C0004A2B5B2BDA01C9018F779070A070B07052
:1008D00080349105A105B10539F427FF09C0205CDA
:1008E0003F4F4F4F5F4F04C0215C3F4F4F4F5F4F13
:1008F000E0E0F0E02030A0E03A07A0E04A07A0E402
:100900005A0710F0E1E0F0E079018A0127C0603871
:10091000710564F5FB01E158FF4FD801C7018F77DE
:100920009070A070B07080349105A105B10539F4C4
:10093000E7FE0DC080E490E0A0E0B0E004C08FE3EB
:1009400090E0A0E0B0E0E80EF91E0A1F1B1F17FFA1
:1009500005C016950795F794E794319687E01695AC
:100960000795F794E7948A95D1F705C0EE24FF2404
:100970008701EFEFF0E06E2F679566276795902F60
:100980009F77D794DD24D7948E2F8695492F462BB9
:10099000582F5D29B701CA011F910F91FF90EF9069
:1009A000DF900895FC01DB01408151812281622F9B
:1009B0006F7770E0221F2227221F9381892F880FD3
:1009C000822B282F30E0991F9927991F11969C930D
:1009D000119721153105A9F54115510561057105DD
:1009E00011F482E037C082E89FEF13969C938E93B8
:1009F00012979A01AB0167E0220F331F441F551F66
:100A00006A95D1F783E08C930DC0220F331F441FEA
:100A1000551F12968D919C911397019713969C9355
:100A20008E931297203080E0380780E0480780E4FA
:100A3000580758F314962D933D934D935C93179755
:100A400008952F3F310579F4411551056105710570
:100A500019F484E08C93089564FF03C081E08C93C3
:100A600012C01C9210C02F57304013963C932E9307
:100A7000129783E08C9387E0440F551F661F771F02
:100A80008A95D1F7706414964D935D936D937C9322
:100A9000179708951F93DC01FB019C91923008F495
:100AA00047C08081823008F443C0943051F41196DD
:100AB0001C91843099F58181682F70E0611B710968
:100AC0003FC0843021F0923031F48230B9F181811D
:100AD000882389F12DC011961C9111978230F1F075
:100AE00081811817D9F412962D913C911397828128
:100AF00093818217930794F028173907BCF0149656
:100B00008D919D910D90BC91A02D248135814681C0
:100B10005781281739074A075B0718F4112341F05A
:100B20000AC082179307A407B50740F4112319F0F0
:100B300061E070E005C06FEF7FEF02C060E070E041
:100B4000CB011F910895CF92DF92EF920F93DF9325
:100B5000CF93CDB7DEB766970FB6F894DEBF0FBE62
:100B6000CDBF89836A834B832C830D83EE82D88625
:100B7000CF82AAE2B0E0EAE2F0E0808180618C936B
:100B8000AAE2B0E0EAE2F0E0808188608C93A0E421
:100B9000B0E0E0E4F0E0808180688C938A81282FC7
:100BA00030E03C8B2B8B8B899C89009731F02B8913
:100BB0003C892130310549F00FC0A0E4B0E0E0E409
:100BC000F0E080818F7B8C9307C0A0E4B0E0E0E48C
:100BD000F0E0808180648C938981282F30E03A8B0B
:100BE000298B89899A89009731F029893A8921309E
:100BF0003105B9F02BC0AAE2B0E0EAE2F0E0808172
:100C00008F778C93AAE2B0E0EAE2F0E080818F7BFC
:100C10008C93AAE2B0E0EAE2F0E080818F7D8C93D1
:100C200015C0AAE2B0E0EAE2F0E0808180688C932F
:100C3000AAE2B0E0EAE2F0E0808180648C93AAE26C
:100C4000B0E0EAE2F0E0808180628C938B81282F13
:100C500030E0388B2F878F85988982309105C1F0DD
:100C60002F8538892330310511F18F8598890097B8
:100C700061F5A0E4B0E0E0E4F0E080818F7E8C9349
:100C8000A0E4B0E0E0E4F0E080818F7D8C931DC0B3
:100C9000A0E4B0E0E0E4F0E080818F7E8C93A0E4FB
:100CA000B0E0E0E4F0E0808180628C930EC0A0E4CC
:100CB000B0E0E0E4F0E0808180618C93A0E4B0E0FB
:100CC000E0E4F0E0808180628C938C81282F30E01A
:100CD0003E872D878D859E858230910509F448C019
:100CE0002D853E852330310554F48D859E850097F2
:100CF00099F02D853E852130310521F17AC08D8511
:100D00009E858330910509F449C02D853E852430A8
:100D1000310509F459C06DC0A0E4B0E0E0E4F0E0B2
:100D200080818D7F8C93A0E4B0E0E0E4F0E08081EE
:100D30008B7F8C93AAE2B0E0EAE2F0E080818B7FC7
:100D40008C9357C0A0E4B0E0E0E4F0E080818260E2
:100D50008C93A0E4B0E0E0E4F0E080818B7F8C93A2
:100D6000AAE2B0E0EAE2F0E080818B7F8C9341C0A0
:100D7000A0E4B0E0E0E4F0E080818D7F8C93A0E41B
:100D8000B0E0E0E4F0E0808184608C93AAE2B0E01F
:100D9000EAE2F0E080818B7F8C932BC0A0E4B0E08E
:100DA000E0E4F0E0808182608C93A0E4B0E0E0E4D5
:100DB000F0E0808184608C93AAE2B0E0EAE2F0E0A7
:100DC00080818B7F8C9315C0A0E4B0E0E0E4F0E07C
:100DD000808182608C93A0E4B0E0E0E4F0E0808168
:100DE00084608C93AAE2B0E0EAE2F0E08081846063
:100DF0008C938D81282F30E03C872B878B859C85B9
:100E0000009731F02B853C852130310549F00FC02A
:100E1000A0E4B0E0E0E4F0E0808181608C9307C062
:100E2000A0E4B0E0E0E4F0E080818E7F8C938E81DE
:100E3000282F30E03A87298789859A85009731F0F5
:100E400029853A852130310549F00FC0A0E4B0E092
:100E5000E0E4F0E08081877F8C9307C0A0E4B0E0FD
:100E6000E0E4F0E0808188608C93A0E4B0E0E0E40E
:100E7000F0E080818F778C938F8198859E8B8D8B0E
:100E80002D893E8927363105D1F18D899E89883695
:100E9000910560F42D893E892333310509F44BC057
:100EA0008D899E8984349105C1F152C02D893E8976
:100EB0002F3C3105B1F08D899E8921E0803A92075F
:100EC00009F046C0A9E2B0E0E9E2F0E08081806A82
:100ED0008C93A0E4B0E0E0E4F0E0808181608C934A
:100EE00037C0A9E2B0E0E9E2F0E080818F6C8C933A
:100EF000A0E4B0E0E0E4F0E080818C9329C0A9E2B6
:100F0000B0E0E9E2F0E0808187668C93A0E4B0E095
:100F1000E0E4F0E080818C931BC0A9E2B0E0E9E25C
:100F2000F0E0808184648C93A0E4B0E0E0E4F0E041
:100F300080818C930DC0A9E2B0E0E9E2F0E080810D
:100F400083638C93A0E4B0E0E0E4F0E080818C93D4
:100F500066960FB6F894DEBF0FBECDBFCF91DF917E
:100F60000F91EF90DF90CF900895DF93CF930F9282
:100F7000CDB7DEB7EBE2F0E080811982882314F070
:100F800081E0898389810F90CF91DF910895DF936C
:100F9000CF930F92CDB7DEB78983EAE2F0E080818C
:100FA00086958695882F90E081709070009781F4E7
:100FB000EBE2F0E08081829586958770882F90E043
:100FC000817090700097A1F3ECE2F0E0898180835A
:100FD0000F90CF91DF910895DF93CF9300D00F92C0
:100FE000CDB7DEB79B838A831982EAE2F0E0808185
:100FF00086958695882F90E081709070009739F5DE
:10100000EBE2F0E08081829586958770882F90E0F2
:10101000817090700097A1F30FC0ACE2B0E08981BD
:10102000282F30E08A819B81FC01E20FF31F808131
:101030008C9389818F5F89838981282F30E08A8111
:101040009B81FC01E20FF31F8081882331F70F9011
:101050000F900F90CF91DF910895DF93CF930F9270
:10106000CDB7DEB71982EAE2F0E0808186958695F9
:10107000882F90E081709070009749F4EBE2F0E0E7
:1010800080818823DCF7ECE2F0E08081898389812C
:101090000F90CF91DF910895DF93CF93CDB7DEB757
:1010A000E0E2F0E082E08083E1E2F0E01082E2E260
:1010B000F0E082E08083E6E5F0E084E48083CF9195
:1010C000DF910895DF93CF93CDB7DEB7E6E5F0E08B
:1010D00084EA8083E6E5F0E080818823DCF7CF9125
:1010E000DF910895DF93CF93CDB7DEB7E6E5F0E06B
:1010F00084E98083CF91DF910895DF93CF930F929E
:10110000CDB7DEB78983E3E2F0E089818083E6E54D
:10111000F0E084E88083E6E5F0E080818823DCF776
:101120000F90CF91DF910895DF93CF93CDB7DEB7C6
:10113000E6E5F0E084EC8083E6E5F0E0808188235A
:10114000DCF7E3E2F0E08081CF91DF910895DF9357
:10115000CF93CDB7DEB7E6E5F0E084E88083E6E53F
:10116000F0E080818823DCF7E3E2F0E08081CF913A
:10117000DF910895DF93CF930F92CDB7DEB7198239
:10118000E1E2F0E08081887F898389810F90CF91AF
:10119000DF910895DF93CF93CDB7DEB7A3E5B0E03D
:1011A000E3E5F0E080818F7B8C93A3E5B0E0E3E59D
:1011B000F0E0808188608C93A9E5B0E0E9E5F0E09B
:1011C000808182608C93A3E5B0E0E3E5F0E080816C
:1011D000887F8C93A3E5B0E0E3E5F0E08081856053
:1011E0008C93CF91DF910895DF93CF930F92CDB77A
:1011F000DEB78983E2E5F0E0898180830F90CF91AB
:10120000DF910895DF93CF930F92CDB7DEB7898337
:10121000ECE5F0E0898180830F90CF91DF91089514
:10122000DF93CF93CDB7DEB7AFE5B0E0EFE5F0E009
:10123000808180688C93CF91DF910895DF93CF9365
:10124000CDB7DEB7AFE5B0E0EFE5F0E080818F77B6
:101250008C93CF91DF910895DF93CF93CDB7DEB715
:1012600028970FB6F894DEBF0FBECDBF89836A837F
:10127000AFE5B0E0EFE5F0E0808180688C93ABE50E
:10128000B0E0EBE5F0E08081482F8981282F30E045
:1012900081E090E0022E02C0880F991F0A94E2F7C5
:1012A000842B8C938981863009F05CC08A81282F39
:1012B00030E038872F838F8198858230910529F11E
:1012C0002F8138852330310534F48F819885813022
:1012D000910561F0C9C02F8138852330310599F11E
:1012E0008F81988584309105F9F0BEC0A5E5B0E006
:1012F000E5E5F0E0808181608C93A5E5B0E0E5E56F
:10130000F0E0808182608C93AFC0A5E5B0E0E5E5B8
:10131000F0E080818E7F8C93A5E5B0E0E5E5F0E01C
:10132000808182608C93A0C0A5E5B0E0E5E5F0E0A7
:1013300080818E7F8C93A5E5B0E0E5E5F0E08081CB
:101340008D7F8C9391C0A5E5B0E0E5E5F0E080816C
:1013500081608C93A5E5B0E0E5E5F0E080818D7FCC
:101360008C9382C08981873009F05CC08A81282FE4
:1013700030E03E832D838D819E818230910529F15D
:101380002D813E812330310534F48D819E81813061
:10139000910561F069C02D813E812330310599F1BD
:1013A0008D819E8184309105F9F05EC0A5E5B0E0A5
:1013B000E5E5F0E0808184608C93A5E5B0E0E5E5AB
:1013C000F0E0808188608C934FC0A5E5B0E0E5E552
:1013D000F0E080818B7F8C93A5E5B0E0E5E5F0E05F
:1013E000808188608C9340C0A5E5B0E0E5E5F0E041
:1013F00080818B7F8C93A5E5B0E0E5E5F0E080810E
:10140000877F8C9331C0A5E5B0E0E5E5F0E0808111
:1014100084608C93A5E5B0E0E5E5F0E08081877F0E
:101420008C9322C089818530F9F48A81282F30E09D
:101430003C832B838B819C818130910531F02B8102
:101440003C812230310549F00FC0A4E5B0E0E4E56D
:10145000F0E0808180648C9307C0A4E5B0E0E4E50F
:10146000F0E080818F7B8C9328960FB6F894DEBFD6
:101470000FBECDBFCF91DF910895DF93CF930F9231
:10148000CDB7DEB78983ABE5B0E0EBE5F0E0808176
:10149000482F8981282F30E081E090E0022E02C0A1
:1014A000880F991F0A94E2F7809584238C930F90FC
:1014B000CF91DF910895DF93CF9300D0CDB7DEB702
:1014C0009A83898389819A81909381008093800097
:1014D0000F900F90CF91DF910895DF93CF9300D0BD
:1014E000CDB7DEB79A83898389819A8190937F00F3
:1014F00080937E000F900F90CF91DF910895DF933E
:10150000CF9300D0CDB7DEB79A83898389819A8142
:1015100090938300809382000F900F90CF91DF9182
:1015200008951F920F920FB60F9211242F933F939D
:101530004F935F936F937F938F939F93AF93BF93DB
:10154000EF93FF93DF93CF93CDB7DEB7E0918000A9
:10155000F09181000995CF91DF91FF91EF91BF91BB
:10156000AF919F918F917F916F915F914F913F913B
:101570002F910F900FBE0F901F9018951F920F92F2
:101580000FB60F9211242F933F934F935F936F9356
:101590007F938F939F93AF93BF93EF93FF93DF93CB
:1015A000CF93CDB7DEB7E0917E00F0917F00099533
:1015B000CF91DF91FF91EF91BF91AF919F918F916B
:1015C0007F916F915F914F913F912F910F900FBE3F
:1015D0000F901F9018951F920F920FB60F92112423
:1015E0002F933F934F935F936F937F938F939F932B
:1015F000AF93BF93EF93FF93DF93CF93CDB7DEB756
:10160000E0918200F09183000995CF91DF91FF91E5
:10161000EF91BF91AF919F918F917F916F915F916A
:101620004F913F912F910F900FBE0F901F901895E3
:10163000DF93CF93CDB7DEB727970FB6F894DEBF11
:101640000FBECDBF89836A834B838B81813009F0C4
:101650006FC08981282F30E03F832E838E819F8148
:101660008130910549F12E813F81223031052CF4E2
:101670008E819F81009761F0D2C02E813F81223000
:10168000310571F18E819F8183309105E9F1C7C0E9
:10169000ABE3B0E0EBE3F0E08081482F8A81282FB4
:1016A00030E081E090E0022E02C0880F991F0A947A
:1016B000E2F7842B8C93B3C0A8E3B0E0E8E3F0E05A
:1016C0008081482F8A81282F30E081E090E0022E2F
:1016D00002C0880F991F0A94E2F7842B8C939FC055
:1016E000A5E3B0E0E5E3F0E08081482F8A81282F70
:1016F00030E081E090E0022E02C0880F991F0A942A
:10170000E2F7842B8C938BC0A2E3B0E0E2E3F0E03D
:101710008081482F8A81282F30E081E090E0022EDE
:1017200002C0880F991F0A94E2F7842B8C9377C02C
:101730008B81882309F073C08981282F30E03D8395
:101740002C838C819D818130910559F12C813D81C3
:10175000223031052CF48C819D81009769F05FC0A7
:101760002C813D812230310589F18C819D8183302E
:10177000910509F440C053C0ABE3B0E0EBE3F0E007
:101780008081482F8A81282F30E081E090E0022E6E
:1017900002C0880F991F0A94E2F7809584238C93E6
:1017A0003EC0A8E3B0E0E8E3F0E08081482F8A8102
:1017B000282F30E081E090E0022E02C0880F991FB0
:1017C0000A94E2F7809584238C9329C0A5E3B0E0C6
:1017D000E5E3F0E08081482F8A81282F30E081E026
:1017E00090E0022E02C0880F991F0A94E2F78095BC
:1017F00084238C9314C0A2E3B0E0E2E3F0E08081A4
:10180000482F8A81282F30E081E090E0022E02C02C
:10181000880F991F0A94E2F7809584238C9327966A
:101820000FB6F894DEBF0FBECDBFCF91DF91089504
:10183000DF93CF93CDB7DEB727970FB6F894DEBF0F
:101840000FBECDBF89836A834B838B81882309F0C8
:1018500074C08981282F30E03F832E838E819F8141
:101860008130910559F12E813F81223031052CF4D0
:101870008E819F81009769F0D2C02E813F812230F6
:10188000310589F18E819F818330910509F440C033
:10189000C6C0AAE3B0E0EAE3F0E08081482F8A8185
:1018A000282F30E081E090E0022E02C0880F991FBF
:1018B0000A94E2F7809584238C93B1C0A7E3B0E04B
:1018C000E7E3F0E08081482F8A81282F30E081E033
:1018D00090E0022E02C0880F991F0A94E2F78095CB
:1018E00084238C939CC0A4E3B0E0E4E3F0E0808127
:1018F000482F8A81282F30E081E090E0022E02C03C
:10190000880F991F0A94E2F7809584238C9387C0EF
:10191000A1E3B0E0E1E3F0E08081482F8A81282F45
:1019200030E081E090E0022E02C0880F991F0A94F7
:10193000E2F7809584238C9372C08B81813009F00B
:101940006EC08981282F30E03D832C838C819D815E
:101950008130910549F12C813D81223031052CF4F3
:101960008C819D81009761F05AC02C813D8122308D
:10197000310571F18C819D8183309105E9F14FC072
:10198000AAE3B0E0EAE3F0E08081482F8A81282FC3
:1019900030E081E090E0022E02C0880F991F0A9487
:1019A000E2F7842B8C933BC0A7E3B0E0E7E3F0E0E1
:1019B0008081482F8A81282F30E081E090E0022E3C
:1019C00002C0880F991F0A94E2F7842B8C9327C0DA
:1019D000A4E3B0E0E4E3F0E08081482F8A81282F7F
:1019E00030E081E090E0022E02C0880F991F0A9437
:1019F000E2F7842B8C9313C0A1E3B0E0E1E3F0E0C5
:101A00008081482F8A81282F30E081E090E0022EEB
:101A100002C0880F991F0A94E2F7842B8C932796B3
:101A20000FB6F894DEBF0FBECDBFCF91DF91089502
:101A3000DF93CF9300D000D00F92CDB7DEB78A836B
:101A40006B8382E089838A81282F30E03D832C8359
:101A50004C815D814130510541F18C819D81823005
:101A6000910534F42C813D812115310561F052C07E
:101A70004C815D814230510551F18C819D818330D3
:101A80009105B9F147C0E9E3F0E08081282F30E00B
:101A90008B81882F90E0A90102C0559547958A95C2
:101AA000E2F7CA018170898335C0E6E3F0E0808106
:101AB000282F30E08B81882F90E0A90102C0559536
:101AC00047958A95E2F7CA018170898323C0E3E3D1
:101AD000F0E08081282F30E08B81882F90E0A901F1
:101AE00002C0559547958A95E2F7CA0181708983AE
:101AF00011C0E0E3F0E08081282F30E08B81882F57
:101B000090E0A90102C0559547958A95E2F7CA0170
:101B10008170898389810F900F900F900F900F90A3
:101B2000CF91DF910895DF93CF9300D000D0CDB750
:101B3000DEB789836A838981282F30E03C832B8339
:101B40008B819C8181309105D1F02B813C812230A9
:101B500031052CF48B819C81009761F01EC02B8194
:101B60003C812230310581F08B819C81833091054D
:101B700081F013C0EBE3F0E08A8180830EC0E8E3DC
:101B8000F0E08A81808309C0E5E3F0E08A81808308
:101B900004C0E2E3F0E08A8180830F900F900F9001
:101BA0000F90CF91DF910895DF93CF9300D000D0B5
:101BB00000D0CDB7DEB789836A838A81813099F5F9
:101BC0008981282F30E03E832D838D819E81813055
:101BD0009105D1F02D813E81223031052CF48D818B
:101BE0009E81009761F050C02D813E8122303105E9
:101BF00081F08D819E818330910581F045C0EAE3BB
:101C0000F0E08FEF808340C0E7E3F0E08FEF808368
:101C10003BC0E4E3F0E08FEF808336C0E1E3F0E027
:101C20008FEF808331C08A81882371F58981282FC5
:101C300030E03C832B838B819C8181309105C9F0FE
:101C40002B813C81223031052CF48B819C810097C3
:101C500061F01AC02B813C812230310571F08B81FB
:101C60009C818330910569F00FC0EAE3F0E01082B7
:101C70000BC0E7E3F0E0108207C0E4E3F0E010827D
:101C800003C0E1E3F0E0108226960FB6F894DEBFC1
:101C90000FBECDBFCF91DF910895DF93CF9300D0DA
:101CA00000D00F92CDB7DEB789837B836A838981A9
:101CB000282F30E03D832C838C819D8181309105DC
:101CC00009F4D1C02C813D81223031052CF48C8166
:101CD0009D81009771F0F3C22C813D812230310546
:101CE00009F47BC18C819D818330910509F42FC259
:101CF000E6C2EA81FB8180818370813031F480E02B
:101D000060E041E00E94180B0BC0EA81FB818081FA
:101D10008370882329F480E060E040E00E94180B83
:101D2000EA81FB8180818C70843031F480E061E055
:101D300041E00E94180B0BC0EA81FB8180818C700E
:101D4000882329F480E061E040E00E94180BEA81DA
:101D5000FB8180818073803131F480E062E041E07A
:101D60000E94180B0BC0EA81FB818081807388235D
:101D700029F480E062E040E00E94180BEA81FB81D8
:101D80008081807C803431F480E063E041E00E9417
:101D9000180B0BC0EA81FB818081807C882329F4A9
:101DA00080E063E040E00E94180BEA81FB818181C2
:101DB0008370813031F480E064E041E00E94180BD0
:101DC0000BC0EA81FB8181818370882329F480E044
:101DD00064E040E00E94180BEA81FB8181818C70F5
:101DE000843031F480E065E041E00E94180B0BC0C4
:101DF000EA81FB8181818C70882329F480E065E091
:101E000040E00E94180BEA81FB8181818073803160
:101E100031F480E066E041E00E94180B0BC0EA81DB
:101E2000FB8181818073882329F480E066E040E0B3
:101E30000E94180BEA81FB818181807C803431F41F
:101E400080E067E041E00E94180B39C2EA81FB8123
:101E50008181807C882309F032C280E067E040E025
:101E60000E94180B2CC2EA81FB8180818370813033
:101E700031F481E060E041E00E94180B0BC0EA8180
:101E8000FB8180818370882329F481E060E040E059
:101E90000E94180BEA81FB8180818C70843031F4C0
:101EA00081E061E041E00E94180B0BC0EA81FB81F8
:101EB00080818C70882329F481E061E040E00E94F9
:101EC000180BEA81FB8180818073803131F481E0DD
:101ED00062E041E00E94180B0BC0EA81FB81808127
:101EE0008073882329F481E062E040E00E94180BAF
:101EF000EA81FB818081807C803431F481E063E081
:101F000041E00E94180B0BC0EA81FB818081807C3C
:101F1000882329F481E063E040E00E94180BEA8105
:101F2000FB8181818370813031F481E064E041E0A4
:101F30000E94180B0BC0EA81FB818181837088238A
:101F400029F481E064E040E00E94180BEA81FB8103
:101F500081818C70843031F481E065E041E00E9441
:101F6000180B0BC0EA81FB8181818C70882329F4D6
:101F700081E065E040E00E94180BEA81FB818181ED
:101F80008073803131F481E066E041E00E94180BFB
:101F90000BC0EA81FB8181818073882329F481E071
:101FA00066E040E00E94180BEA81FB818181807C21
:101FB000803431F481E067E041E00E94180B7FC17A
:101FC000EA81FB818181807C882309F078C181E0EE
:101FD00067E040E00E94180B72C1EA81FB818081BA
:101FE0008370813031F482E060E041E00E94180BA0
:101FF0000BC0EA81FB8180818370882329F482E011
:1020000060E040E00E94180BEA81FB8180818C70C7
:10201000843031F482E061E041E00E94180B0BC093
:10202000EA81FB8180818C70882329F482E061E061
:1020300040E00E94180BEA81FB818081807380312F
:1020400031F482E062E041E00E94180B0BC0EA81AB
:10205000FB8180818073882329F482E062E040E084
:102060000E94180BEA81FB818081807C803431F4EE
:1020700082E063E041E00E94180B0BC0EA81FB8123
:102080008081807C882329F482E063E040E00E9424
:10209000180BEA81FB8181818370813031F482E009
:1020A00064E041E00E94180B0BC0EA81FB81818152
:1020B0008370882329F482E064E040E00E94180BDA
:1020C000EA81FB8181818C70843031F482E065E0AB
:1020D00041E00E94180B0BC0EA81FB8181818C706A
:1020E000882329F482E065E040E00E94180BEA8131
:1020F000FB8181818073803131F482E066E041E0D0
:102100000E94180B0BC0EA81FB81818180738823B8
:1021100029F482E066E040E00E94180BEA81FB812E
:102120008181807C803431F482E067E041E00E946C
:10213000180BC5C0EA81FB818181807C882309F06E
:10214000BEC082E067E040E00E94180BB8C0EA81A0
:10215000FB8180818370813031F483E060E041E075
:102160000E94180B0BC0EA81FB8180818370882359
:1021700029F483E060E040E00E94180BEA81FB81D3
:1021800080818C70843031F483E061E041E00E9412
:10219000180B0BC0EA81FB8180818C70882329F4A5
:1021A00083E061E040E00E94180BEA81FB818081BE
:1021B0008073803131F483E062E041E00E94180BCB
:1021C0000BC0EA81FB8180818073882329F483E03E
:1021D00062E040E00E94180BEA81FB818081807CF4
:1021E000803431F483E063E041E00E94180B0BC0BF
:1021F000EA81FB818081807C882329F483E063E08D
:1022000040E00E94180BEA81FB818181837081305C
:1022100031F483E064E041E00E94180B0BC0EA81D6
:10222000FB8181818370882329F483E064E040E0AE
:102230000E94180BEA81FB8181818C70843031F41B
:1022400083E065E041E00E94180B0BC0EA81FB814E
:1022500081818C70882329F483E065E040E00E944E
:10226000180BEA81FB8181818073803131F483E036
:1022700066E041E00E94180B0BC0EA81FB8181817E
:102280008073882329F483E066E040E00E94180B05
:10229000EA81FB818181807C803431F483E067E0D6
:1022A00041E00E94180B0BC0EA81FB818181807C98
:1022B000882329F483E067E040E00E94180B0F9028
:1022C0000F900F900F900F90CF91DF910895DF93B3
:1022D000CF9300D0CDB7DEB789836A83E6E2F0E022
:1022E00089818083A6E2B0E0E6E2F0E08081806848
:1022F0008C93A6E2B0E0E6E2F0E08081877F8C93E9
:10230000A6E2B0E0E6E2F0E080818F7D8C93E7E228
:10231000F0E08A8180830F900F90CF91DF91089534
:10232000DF93CF9300D00F92CDB7DEB78B83A7E2B8
:10233000B0E0E7E2F0E08081807E8C93A7E2B0E03D
:10234000E7E2F0E090818B81892B8C93A6E2B0E0EC
:10235000E6E2F0E0808180648C93E6E2F0E0808148
:102360008295869586958370882F90E08170907015
:10237000882399F7E4E2F0E08081282F30E0E5E25D
:10238000F0E08081882F90E0982F8827820F931F9C
:102390009A83898389819A810F900F900F90CF91B2
:1023A000DF910895DF93CF93CDB7DEB727970FB6B0
:1023B000F894DEBF0FBECDBF80E00E9490119F83D6
:1023C0008E838E819F81CC01A0E0B0E028E833E1CC
:1023D00040E050E0BC01CD010E945A1EDC01CB015F
:1023E000072E7AE0B695A795979587957A95D1F7B8
:1023F000702D8A839B83AC83BD838A819B81AC8152
:10240000BD812AE030E040E050E0BC01CD010E94F7
:10241000791EDA01C9018983898127960FB6F8945C
:10242000DEBF0FBECDBFCF91DF910895DF93CF9375
:10243000CDB7DEB782E060E041E00E94180C82E098
:1024400061E041E00E94180C82E062E041E00E94FD
:10245000180C80E063E041E00E94180C80E064E02A
:1024600041E00E94180C80E065E041E00E94180CF9
:1024700080E066E041E00E94180C80E067E041E007
:102480000E94180CCF91DF910895DF93CF9300D075
:102490000F92CDB7DEB789838981282F30E03B8347
:1024A0002A838A819B8183309105D9F12A813B81DE
:1024B000243031057CF48A819B818130910529F19A
:1024C0002A813B812230310534F58A819B81009736
:1024D000B1F044C02A813B812530310571F18A81F8
:1024E0009B81853091051CF12A813B812630310585
:1024F00051F18A819B818730910559F12FC082E08B
:1025000060E041E00E94180B29C082E061E041E0F8
:102510000E94180B23C082E062E041E00E94180B89
:102520001DC080E063E041E00E94180B17C080E00E
:1025300064E041E00E94180B11C080E065E041E0DA
:102540000E94180B0BC080E066E041E00E94180B6F
:1025500005C080E067E041E00E94180B0F900F90EB
:102560000F90CF91DF910895DF93CF9300D00F921A
:10257000CDB7DEB789838981282F30E03B832A835A
:102580008A819B8183309105D9F12A813B81243056
:1025900031057CF48A819B818130910529F12A8162
:1025A0003B812230310534F58A819B810097B1F05F
:1025B00044C02A813B812530310571F18A819B819C
:1025C000853091051CF12A813B812630310551F17E
:1025D0008A819B818730910559F12FC082E060E0AC
:1025E00040E00E94180B29C082E061E040E00E94B8
:1025F000180B23C082E062E040E00E94180B1DC06F
:1026000080E063E040E00E94180B17C080E064E0C7
:1026100040E00E94180B11C080E065E040E00E949D
:10262000180B0BC080E066E040E00E94180B05C06C
:1026300080E067E040E00E94180B0F900F900F9031
:10264000CF91DF910895DF93CF93CDB7DEB783E0CD
:1026500061E00E94D40D80E065E041E00E94180C2A
:1026600080E066E041E00E94180C80E067E041E015
:102670000E94180CCF91DF910895DF93CF93CDB7CF
:10268000DEB72F970FB6F894DEBF0FBECDBF8F8792
:1026900080E065E040E00E94180B80E066E040E0EA
:1026A0000E94180B83E06F850E94930D80E067E025
:1026B00041E00E94180B80E090E0A0EAB0E48B8734
:1026C0009C87AD87BE876B857C858D859E8520E048
:1026D00030E04AEF54E40E941F02DC01CB018F83FB
:1026E0009887A987BA876F81788589859A8520E040
:1026F00030E040E85FE30E94790388232CF481E016
:1027000090E09E838D833FC06F81788589859A850F
:1027100020E03FEF4FE757E40E94190318164CF5ED
:102720006B857C858D859E8520E030E040E251E41C
:102730000E941F02DC01CB01BC01CD010E944900B7
:10274000DC01CB019E838D830FC088EC90E09C83DD
:102750008B838B819C810197F1F79C838B838D8187
:102760009E8101979E838D838D819E81009769F75D
:1027700014C06F81788589859A850E944900DC01A3
:10278000CB019E838D838D819E819A8389838981EC
:102790009A810197F1F79A83898380E067E040E0AE
:1027A0000E94180B2F960FB6F894DEBF0FBECDBF58
:1027B000CF91DF910895DF93CF93CDB7DEB72F97F9
:1027C0000FB6F894DEBF0FBECDBF8F8780E065E007
:1027D00041E00E94180B80E066E040E00E94180B88
:1027E00083E06F850E94930D80E067E041E00E94E6
:1027F000180B80E090E0A0E0B0E48B879C87AD8769
:10280000BE876B857C858D859E8520E030E04AEF14
:1028100054E40E941F02DC01CB018F839887A987B3
:10282000BA876F81788589859A8520E030E040E815
:102830005FE30E94790388232CF481E090E09E837B
:102840008D833FC06F81788589859A8520E03FEF31
:102850004FE757E40E94190318164CF56B857C85E9
:102860008D859E8520E030E040E251E40E941F0209
:10287000DC01CB01BC01CD010E944900DC01CB0190
:102880009E838D830FC088EC90E09C838B838B812B
:102890009C810197F1F79C838B838D819E810197A9
:1028A0009E838D838D819E81009769F714C06F810F
:1028B000788589859A850E944900DC01CB019E8339
:1028C0008D838D819E819A83898389819A810197E5
:1028D000F1F79A83898380E067E040E00E94180B5B
:1028E0002F960FB6F894DEBF0FBECDBFCF91DF910C
:1028F00008950F931F93DF93CF93CDB7DEB7C654E0
:10290000D0400FB6F894DEBF0FBECDBFFE01ED5B29
:10291000FF4F80E090E0A0EFB1E480839183A28339
:10292000B3838E01015C1F4FFE01ED5BFF4F6081A1
:1029300071818281938120E030E04AEF54E40E946B
:102940001F02DC01CB01F80180839183A283B38352
:10295000FE01FF96608171818281938120E030E0E9
:1029600040E85FE30E94790388232CF481E090E043
:102970009EAF8DAF46C0FE01FF966081718182815E
:10298000938120E03FEF4FE757E40E9419031816A8
:1029900064F5FE01ED5BFF4F60817181828193815F
:1029A00020E030E040E251E40E941F02DC01CB0154
:1029B000BC01CD010E944900DC01CB019EAF8DAF6F
:1029C0000FC088EC90E09CAF8BAF8BAD9CAD0197B6
:1029D000F1F79CAF8BAF8DAD9EAD01979EAF8DAFE4
:1029E0008DAD9EAD009769F716C0FE01FF96608120
:1029F0007181828193810E944900DC01CB019EAFED
:102A00008DAF8DAD9EAD9AAF89AF89AD9AAD01976F
:102A1000F1F79AAF89AF88E30E943D1380E090E020
:102A2000A0E0B0E48DAB9EABAFABB8AF6DA97EA913
:102A30008FA998AD20E030E04AEF54E40E941F02D5
:102A4000DC01CB0189AB9AABABABBCAB69A97AA972
:102A50008BA99CA920E030E040E85FE30E94790365
:102A600088232CF481E090E098AB8FA73FC069A940
:102A70007AA98BA99CA920E03FEF4FE757E40E9479
:102A8000190318164CF56DA97EA98FA998AD20E001
:102A900030E040E251E40E941F02DC01CB01BC01A6
:102AA000CD010E944900DC01CB0198AB8FA70FC07C
:102AB00088EC90E09EA78DA78DA59EA50197F1F7C4
:102AC0009EA78DA78FA598A9019798AB8FA78FA5D3
:102AD00098A9009769F714C069A97AA98BA99CA93C
:102AE0000E944900DC01CB0198AB8FA78FA598A964
:102AF0009CA78BA78BA59CA50197F1F79CA78BA7FB
:102B00008FE00E943D1380E090E0A0E0B0E48FA34E
:102B100098A7A9A7BAA76FA178A589A59AA520E02B
:102B200030E04AEF54E40E941F02DC01CB018BA38A
:102B30009CA3ADA3BEA36BA17CA18DA19EA120E00F
:102B400030E040E85FE30E94790388232CF481E0C1
:102B500090E09AA389A33FC06BA17CA18DA19EA107
:102B600020E03FEF4FE757E40E94190318164CF599
:102B70006FA178A589A59AA520E030E040E251E454
:102B80000E941F02DC01CB01BC01CD010E94490063
:102B9000DC01CB019AA389A30FC088EC90E098A335
:102BA0008F8F8F8D98A10197F1F798A38F8F89A1AF
:102BB0009AA101979AA389A389A19AA1009769F77D
:102BC00014C06BA17CA18DA19EA10E944900DC01D3
:102BD000CB019AA389A389A19AA19E8F8D8F8D8DF8
:102BE0009E8D0197F1F79E8F8D8F81E00E943D139E
:102BF00080E090E0A0E0B0E4898F9A8FAB8FBC8F2B
:102C0000698D7A8D8B8D9C8D20E030E04AEF54E405
:102C10000E941F02DC01CB018D8B9E8BAF8BB88F86
:102C20006D897E898F89988D20E030E040E85FE3F0
:102C30000E94790388232CF481E090E09C8B8B8B9D
:102C40003FC06D897E898F89988D20E03FEF4FE7E7
:102C500057E40E94190318164CF5698D7A8D8B8DF7
:102C60009C8D20E030E040E251E40E941F02DC0134
:102C7000CB01BC01CD010E944900DC01CB019C8B42
:102C80008B8B0FC088EC90E09A8B898B89899A890D
:102C90000197F1F79A8B898B8B899C8901979C8B83
:102CA0008B8B8B899C89009769F714C06D897E890D
:102CB0008F89988D0E944900DC01CB019C8B8B8B06
:102CC0008B899C89988B8F878F8598890197F1F7DD
:102CD000988B8F8786E00E943D1380E090E0A0E013
:102CE000B0E48B879C87AD87BE876B857C858D859F
:102CF0009E8520E030E04AEF54E40E941F02DC0190
:102D0000CB018F839887A987BA876F81788589855A
:102D10009A8520E030E040E85FE30E947903882351
:102D20002CF481E090E09E838D833FC06F81788595
:102D300089859A8520E03FEF4FE757E40E94190309
:102D400018164CF56B857C858D859E8520E030E0DE
:102D500040E251E40E941F02DC01CB01BC01CD0125
:102D60000E944900DC01CB019E838D830FC088EC5B
:102D700090E09C838B838B819C810197F1F79C83EE
:102D80008B838D819E8101979E838D838D819E8112
:102D9000009769F714C06F81788589859A850E94AC
:102DA0004900DC01CB019E838D838D819E819A83B6
:102DB000898389819A810197F1F79A838983CA5B14
:102DC000DF4F0FB6F894DEBF0FBECDBFCF91DF91BE
:102DD0001F910F910895DF93CF9300D00F92CDB73D
:102DE000DEB79B838A8319820EC08981282F30E049
:102DF0008A819B81FC01E20FF31F80810E94DB131B
:102E000089818F5F89838981282F30E08A819B8126
:102E1000FC01E20FF31F8081882339F70F900F9098
:102E20000F90CF91DF910895DF93CF9300D000D022
:102E3000CDB7DEB789836A838981882311F18981BF
:102E40008330F8F48A818131E0F48A818823C9F0E3
:102E50008981282F30E03C832B838B819C818130BA
:102E6000910531F02B813C812230310531F009C0D0
:102E70008A8181580E943D1304C08A8181540E9436
:102E80003D130F900F900F900F90CF91DF91089509
:102E90000F931F93DF93CF93CDB7DEB72F970FB666
:102EA000F894DEBF0FBECDBF6C877D878E879F876E
:102EB00019828C859D85AE85BF850097A105B105DA
:102EC00089F580E30E94DB134BC08981082F10E055
:102ED0008C859D85AE85BF852AE030E040E050E0DE
:102EE000BC01CD010E94791EDC01CB01282FCE014F
:102EF0000296FC01E00FF11F20838C859D85AE8535
:102F0000BF852AE030E040E050E0BC01CD010E94E6
:102F1000791EDA01C9018C879D87AE87BF878981B9
:102F20008F5F89838C859D85AE85BF850097A105C0
:102F3000B10559F612C08981882F90E09C0121507B
:102F40003040CE010296FC01E20FF31F8081805DCC
:102F50000E94DB138981815089838981882359F7F5
:102F60002F960FB6F894DEBF0FBECDBFCF91DF9185
:102F70001F910F910895DF93CF9300D000D0CDB76C
:102F8000DEB79B838A836C838C81882F90E00796C1
:102F9000880F991F880F991F880F991F0E943D1352
:102FA00019820EC08981282F30E08A819B81FC0123
:102FB000E20FF31F80810E94DB1389818F5F898379
:102FC0008981883078F30F900F900F900F90CF91F8
:102FD000DF910895DF93CF930F92CDB7DEB789834A
:102FE000898181500E94DB130F90CF91DF9108956A
:102FF000DF93CF93CDB7DEB781E060E041E00E9480
:10300000180C81E061E041E00E94180C81E062E070
:1030100041E00E94180C81E063E041E00E94180C3E
:1030200081E064E040E00E94180C81E065E040E04F
:103030000E94180C81E066E040E00E94180C81E0DC
:1030400067E040E00E94180C81E060E041E00E94EF
:10305000180B81E061E041E00E94180B81E062E022
:1030600041E00E94180B81E063E041E00E94180BF0
:1030700081E064E041E00E94180B81E065E041E0FE
:103080000E94180B81E066E041E00E94180B81E08D
:1030900067E041E00E94180BCF91DF910895DF9324
:1030A000CF93CDB7DEB761970FB6F894DEBF0FBEF2
:1030B000CDBF8FEF898B188AABC081E0688940E073
:1030C0000E94180B84E08F8797C081E06F850E9473
:1030D000180D882309F08DC08889482F50E08F850E
:1030E000882F90E09C0124503040CA01880F991F1E
:1030F000880F991F820F931FFC01E259FF4F8081B7
:10310000898B81E06F850E94180D8823D1F380E0C0
:1031100090E0A0E2B1E48B879C87AD87BE876B858A
:103120007C858D859E8520E030E04AEF54E40E9446
:103130001F02DC01CB018F839887A987BA876F8133
:10314000788589859A8520E030E040E85FE30E9439
:10315000790388232CF481E090E09E838D833FC027
:103160006F81788589859A8520E03FEF4FE757E4A6
:103170000E94190318164CF56B857C858D859E85FC
:1031800020E030E040E251E40E941F02DC01CB016C
:10319000BC01CD010E944900DC01CB019E838D83DF
:1031A0000FC088EC90E09C838B838B819C8101977E
:1031B000F1F79C838B838D819E8101979E838D8304
:1031C0008D819E81009769F714C06F81788589850C
:1031D0009A850E944900DC01CB019E838D838D81FD
:1031E0009E819A83898389819A810197F1F79A83D5
:1031F00089838F858F5F8F878F85883008F465CFAF
:1032000081E0688941E00E94180B88898F5F888B74
:103210008889843008F451CF898961960FB6F89473
:10322000DEBF0FBECDBFCF91DF910895DF93CF9367
:10323000CDB7DEB70E944C08CF91DF910895DF93A0
:10324000CF93CDB7DEB727970FB6F894DEBF0FBE8A
:10325000CDBF9C838B837E836D830E9462080E9416
:10326000BA0889838981883011F01F8248C08B8118
:103270009C81892F9927880F8A838A81806A0E947E
:103280007D080E94BA0889838981883119F082E01B
:103290008F8335C08B810E947D080E94BA08898384
:1032A0008981883219F083E08F8329C00E946208E7
:1032B0000E94BA0889838981803119F084E08F8364
:1032C0001EC081EA0E947D080E94BA088983898114
:1032D000803419F085E08F8312C00E949408ED813C
:1032E000FE8180830E94BA0889838981803519F024
:1032F00086E08F8304C00E94720881E08F838F81F3
:1033000027960FB6F894DEBF0FBECDBFCF91DF91E9
:103310000895DF93CF93CDB7DEB727970FB6F89414
:10332000DEBF0FBECDBF9D838C836E830E9462087B
:103330000E94BA0889838981883011F01F8229C0D0
:103340008C819D81892F9927880F8B838B81806A3F
:103350000E947D080E94BA0889838981883111F012
:103360001F8217C08C810E947D080E94BA08898341
:103370008981883211F01F820CC08E810E947D08E5
:103380008981883211F01F8204C00E94720881E096
:103390008F838F8127960FB6F894DEBF0FBECDBF07
:1033A000CF91DF910895DF93CF93CDB7DEB783E060
:1033B00062E040E00E94180C83E063E040E00E947D
:1033C000180C81E062E040E00E94180C83E062E0AB
:1033D00041E00E94180B83E063E041E00E94180B7B
:1033E00081E062E041E00E94180BCF91DF910895E7
:1033F000DF93CF9300D00F92CDB7DEB78A836B8374
:103400008A81282F30E08B81882F90E0A90102C0AB
:10341000559547958A95E2F7CA0181709070882387
:1034200019F081E0898312C08A81282F30E08B81D6
:10343000882F90E0A90102C0559547958A95E2F73B
:10344000CA0181709070009709F4198289810F90E8
:103450000F900F90CF91DF910895DF93CF9300D01D
:103460000F92CDB7DEB789838981282F30E03B8367
:103470002A838A819B818730910509F475C02A814E
:103480003B81283031052CF58A819B818330910561
:1034900009F47FC02A813B81243031056CF48A8194
:1034A0009B818130910509F466C02A813B812230DD
:1034B000310509F467C08AC08A819B8185309105F6
:1034C00009F444C02A813B81263031050CF045C007
:1034D0007AC08A819B818B30910589F12A813B8159
:1034E0002C3031055CF48A819B8189309105C9F0CB
:1034F0002A813B812A303105DCF461C08A819B81BD
:103500008E30910509F44CC02A813B812031310570
:1035100009F451C08A819B818C30910509F447C020
:1035200055C061E070E080E090E00E9448174EC016
:1035300062E070E080E090E00E94481747C063E0DE
:1035400070E080E090E00E94481740C064E070E0C6
:1035500080E090E00E94481739C065E070E080E0AC
:1035600090E00E94481732C066E070E080E090E092
:103570000E9448172BC067E070E080E090E00E9456
:10358000481724C068E070E080E090E00E9448178F
:103590001DC069E070E080E090E00E94481716C00E
:1035A00060E070E080E090E00E9448170FC08DE27C
:1035B0000E94DB130BC08BE20E94DB1307C088E77D
:1035C0000E94DB1303C08FE20E94DB130F900F9069
:1035D0000F90CF91DF910895DF93CF9300D000D06B
:1035E0000F92CDB7DEB79A8389836B838B81282FA7
:1035F00030E03D832C838C819D818630910509F4D8
:10360000B7C02C813D8127303105FCF48C819D8130
:103610008230910509F4FAC02C813D8123303105B7
:103620003CF48C819D818130910509F4D5C038C16D
:103630002C813D812330310509F402C18C819D81AB
:103640008530910509F47AC02BC12C813D812A3047
:103650003105C1F18C819D818B30910564F42C8101
:103660003D812730310509F49DC08C819D818930D1
:10367000910571F015C12C813D812B30310509F484
:1036800043C08C819D818E30910509F4F3C008C13F
:10369000E981FA8180819181A281B3812AE030E0C1
:1036A00040E050E0BC01CD010E945A1EDC01CB017C
:1036B0000196A11DB11DE981FA8180839183A283C6
:1036C000B383EEC0E981FA81208131814281538147
:1036D000DA01C901880F991FAA1FBB1F880F991F04
:1036E000AA1FBB1F820F931FA41FB51F0196A11D08
:1036F000B11D880F991FAA1FBB1FE981FA81808322
:103700009183A283B383CCC0E981FA8180819181C6
:10371000A281B3812AE030E040E050E0BC01CD015D
:103720000E945A1EDC01CB010396A11DB11DE98147
:10373000FA8180839183A283B383B2C0E981FA8145
:1037400080819181A281B3812AE030E040E050E0A5
:10375000BC01CD010E945A1EDC01CB010496A11DC3
:10376000B11DE981FA8180839183A283B38398C0DC
:10377000E981FA8180819181A281B3812AE030E0E0
:1037800040E050E0BC01CD010E945A1EDC01CB019B
:103790000596A11DB11DE981FA8180839183A283E1
:1037A000B3837EC0E981FA8180819181A281B38156
:1037B0002AE030E040E050E0BC01CD010E945A1EFA
:1037C000DC01CB010696A11DB11DE981FA81808340
:1037D0009183A283B38364C0E981FA81808191815E
:1037E000A281B3812AE030E040E050E0BC01CD018D
:1037F0000E945A1EDC01CB010796A11DB11DE98173
:10380000FA8180839183A283B3834AC0E981FA81DC
:1038100080819181A281B3812AE030E040E050E0D4
:10382000BC01CD010E945A1EDC01CB010896A11DEE
:10383000B11DE981FA8180839183A283B38330C073
:10384000E981FA8180819181A281B3812AE030E00F
:1038500040E050E0BC01CD010E945A1EDC01CB01CA
:103860000996A11DB11DE981FA8180839183A2830C
:10387000B38316C0E981FA8180819181A281B381ED
:103880002AE030E040E050E0BC01CD010E945A1E29
:10389000DC01CB01E981FA8180839183A283B38328
:1038A0000F900F900F900F900F90CF91DF91089590
:1038B000DF93CF93CDB7DEB728970FB6F894DEBF6E
:1038C0000FBECDBF9E838D8378876F83ED81FE8190
:1038D0002081318142815381EF81F88580819181FE
:1038E000A281B381820F931FA41FB51F89839A837E
:1038F000AB83BC8382E061E00E9414178DE30E94D9
:10390000DB1389819A81AB81BC81BC01CD010E940E
:10391000481728960FB6F894DEBF0FBECDBFCF91E3
:10392000DF910895EF92FF920F931F93DF93CF9350
:10393000CDB7DEB728970FB6F894DEBF0FBECDBF68
:103940009E838D8378876F83ED81FE812081318115
:1039500042815381EF81F88580819181A281B38179
:1039600079018A01E81AF90A0A0B1B0BD801C70171
:1039700089839A83AB83BC8382E061E00E94141741
:103980008DE30E94DB1389819A81AB81BC81BC01EC
:10399000CD010E94481728960FB6F894DEBF0FBEDF
:1039A000CDBFCF91DF911F910F91FF90EF900895C0
:1039B000DF93CF93CDB7DEB728970FB6F894DEBF6D
:1039C0000FBECDBF9E838D8378876F83ED81FE818F
:1039D00080819181A281B381EF81F885208131813D
:1039E00042815381BC01CD010E945A1EDC01CB01F2
:1039F00089839A83AB83BC8382E061E00E941417C1
:103A00008DE30E94DB1389819A81AB81BC81BC016B
:103A1000CD010E94481728960FB6F894DEBF0FBE5E
:103A2000CDBFCF91DF910895DF93CF93CDB7DEB7B0
:103A300028970FB6F894DEBF0FBECDBF9E838D834F
:103A400078876F83ED81FE8180819181A281B3812E
:103A5000EF81F8852081318142815381BC01CD0104
:103A60000E94791EDA01C90189839A83AB83BC83E2
:103A700082E061E00E9414178DE30E94DB138981CC
:103A80009A81AB81BC81BC01CD010E944817289668
:103A90000FB6F894DEBF0FBECDBFCF91DF91089572
:103AA000DF93CF93CDB7DEB76C970FB6F894DEBF38
:103AB0000FBECDBF0E9423130E94791488E40E9498
:103AC000DB1380E090E0AAE7B4E4898F9A8FAB8F94
:103AD000BC8F698D7A8D8B8D9C8D20E030E04AEF14
:103AE00054E40E941F02DC01CB018D8B9E8BAF8BB7
:103AF000B88F6D897E898F89988D20E030E040E80D
:103B00005FE30E94790388232CF481E090E09C8B92
:103B10008B8B3FC06D897E898F89988D20E03FEF28
:103B20004FE757E40E94190318164CF5698D7A8DFA
:103B30008B8D9C8D20E030E040E251E40E941F021A
:103B4000DC01CB01BC01CD010E944900DC01CB01AD
:103B50009C8B8B8B0FC088EC90E09A8B898B89892A
:103B60009A890197F1F79A8B898B8B899C890197A8
:103B70009C8B8B8B8B899C89009769F714C06D890E
:103B80007E898F89988D0E944900DC01CB019C8B36
:103B90008B8B8B899C89988B8F878F8598890197D0
:103BA000F1F7988B8F8781E00E943D1380E690E0CB
:103BB0000E94EB1680E090E0AAE7B4E48B879C8734
:103BC000AD87BE876B857C858D859E8520E030E046
:103BD0004AEF54E40E941F02DC01CB018F839887D7
:103BE000A987BA876F81788589859A8520E030E03A
:103BF00040E85FE30E94790388232CF481E090E0A1
:103C00009E838D833FC06F81788589859A8520E06A
:103C10003FEF4FE757E40E94190318164CF56B85E8
:103C20007C858D859E8520E030E040E251E40E9455
:103C30001F02DC01CB01BC01CD010E944900DC0167
:103C4000CB019E838D830FC088EC90E09C838B8397
:103C50008B819C810197F1F79C838B838D819E8161
:103C600001979E838D838D819E81009769F714C093
:103C70006F81788589859A850E944900DC01CB0196
:103C80009E838D838D819E819A83898389819A8188
:103C90000197F1F79A83898381E00E943D1382E0C6
:103CA00065E00E94141765E070E080E090E00E94FB
:103CB000481704CF629FD001739FF001829FE00DEF
:103CC000F11D649FE00DF11D929FF00D839FF00D9B
:103CD000749FF00D659FF00D9927729FB00DE11D47
:103CE000F91F639FB00DE11DF91FBD01CF01112424
:103CF0000895A1E21A2EAA1BBB1BFD010DC0AA1F2D
:103D0000BB1FEE1FFF1FA217B307E407F50720F044
:103D1000A21BB30BE40BF50B661F771F881F991FBF
:103D20001A9469F760957095809590959B01AC0108
:103D3000BD01CF0108952F923F924F925F926F92F3
:103D40007F928F929F92AF92BF92CF92DF92EF922B
:103D5000FF920F931F93CF93DF93CDB7DEB7CA1BAC
:103D6000DB0B0FB6F894DEBF0FBECDBF09942A88D7
:103D7000398848885F846E847D848C849B84AA847F
:103D8000B984C884DF80EE80FD800C811B81AA810C
:103D9000B981CE0FD11D0FB6F894DEBF0FBECDBFD7
:083DA000ED010895F894FFCF36
:103DA80041686D6564000000000000000000010526
:0E3DB800090D02060A0E03070B0F04080C107B
:00000001FF
